:020000040800F2
:10000000104300204901000853520008B53400088D
:100010004F520008D50A0008ED63000800000000F8
:10002000000000000000000000000000F758000879
:10003000B10B00080000000091550008F9580008B5
:100040006301000863010008630100086301000800
:1000500063010008630100086301000863010008F0
:1000600063010008630100086301000863010008E0
:10007000350B0008450B0008550B0008650B000800
:1000800063010008750B00086301000863010008A4
:10009000630100086301000863010008BF0B00084A
:1000A00063010008630100086301000863010008A0
:1000B0006959000879590008895900086301000846
:1000C0006301000863010008630100086301000880
:1000D00063010008BD630008CD630008DD6300080C
:1000E000B30B000863010008630100086301000806
:1000F0006301000863010008630100086301000850
:10010000630100086301000863010008630100083F
:10011000630100086301000863010008630100082F
:10012000630100086301000863010008630100081F
:10013000DFF810D000F07EFC0048004789840008FA
:10014000AFF3008010430020064880470648004770
:10015000FEE7FEE7FEE7FEE7FEE7FEE7FEE7FEE777
:10016000FEE7FEE76759000831010008202A04DB9A
:10017000203A21FA02F00021704721FA02F3D04020
:10018000C2F12002914008431946704740EA01033A
:100190009B0703D009E008C9121F08C0042AFAD23D
:1001A00003E011F8013B00F8013B521EF9D2704701
:1001B000D2B201E000F8012B491EFBD270470022A9
:1001C000F6E710B513460A4604461946FFF7F0FF56
:1001D000204610BD421C10F8011B0029FBD1801ADB
:1001E0007047F0B480EA0102D40F4200B2EB410F35
:1001F00002D20246084611464A0042D0C30DDDB283
:10020000C1F3C752AD1A202D35DAC1F3160141F4FE
:10021000000204B15242C5F1200602FA06F12A4159
:100220001044B3EBD05F23D0C4B1012DA0EBC35079
:1002300009DCF0BC4FF0004202EAC352DBB200F529
:10024000000000F013BA400000F1807000EBC350D2
:10025000A0F1807040EAD170490009E0490841EA04
:10026000C071A0EBC35000F50000400800EBC35084
:10027000F0BC00F0F2B96142012202EB4101001B27
:10028000F6E7F0BC704781F00041AAE780F000403B
:10029000A7E780EA010210B502F00043400022D037
:1002A0004A001FD0010E01EB1261C0F35600C2F3E9
:1002B000560240F4000042F40002A0FB02200004B9
:1002C0007F39140400D0401C50EA124001D4400091
:1002D000491EC2B20C0604EBD010401C4008802A14
:1002E00002D003E0002010BD20F00100002900DA58
:1002F0000020184310BD30B480EA010202F000452E
:1003000030F0004221F0004013D090B1C30DD40D65
:10031000C2F31601C0F31600E41A41F4000140F4E0
:1003200000027D34914201D3641C00E04900002C9E
:1003300002DA30BC002070474FF4000000239142E5
:1003400001D3891A034340084FEA4101F7D151B163
:10035000914202D14FF0004105E002D24FF001017D
:1003600001E06FF0010103EBC450284430BC00F001
:1003700074B92DE9FE4F81EA030404F0004421F032
:10038000004100944FF0000B23F0004350EA0104B9
:100390005ED052EA03045BD0C3F30A54C1F30A559A
:1003A0002C44A4F2F3340194A0FB0254C1F31301D2
:1003B00041F48011C3F3130343F4801301FB02449F
:1003C00000FB034E840A970A44EA815447EA8357A4
:1003D000A4FB076802958D0A05FB07854FEA932C5D
:1003E00004FB0C542705029D4FEA065847EA1637CE
:1003F000B5EB08056EEB070C870E920E47EA8117E6
:1004000042EA8312A7FB0201B6EB0B0164EB000486
:100410002B0D43EA0C335E1844EB1C50DA46514670
:10042000E7FB0201C5F313044FEA0B3343EA14530D
:100430004FEA0432019C43EA0603A4F10C0402943F
:10044000009CCDE900B400F078F903B0BDE8F08F6E
:1004500000200146F9E7C10F80EAE0700844CA07AE
:100460009623002100F002B996230022114600F0E5
:10047000FDB80EB540F2334102910021CDE90011E3
:100480000A460B4600F059F903B000BD00F00042E7
:1004900020F00040C10DC0F3160040F400007F2999
:1004A00001DA00207047962903DCC1F19601C840AB
:1004B00001E096398840002AF4D04042704720F08D
:1004C0000040C10DC0F3160040F400007F2901DA9E
:1004D00000207047962903DCC1F19601C84070479F
:1004E00096398840704700F0004230F000400AD052
:1004F000C10D01F56071C0F3160042EA0151C20856
:1005000040071143704700200146704730B5041E74
:1005100071F1000404DB4FF00044404264EB010140
:10052000141E73F1000405DB1C464FF000435242D9
:1005300063EB04038B4208BF824230BD30B5041E1A
:1005400071F1000404DB4FF00044404264EB010110
:10055000141E73F1000405DB1C464FF000435242A9
:1005600063EB0403994208BF904230BD01F00043A1
:1005700030B421F0004150EA010206D00A0DA2F584
:100580006072C1F31301002A02DC30BC0020704706
:10059000440F44EAC104C100E01830BC00EBC25073
:1005A00000F05BB8002801DBC0F10040002901DB4E
:1005B000C1F1004181427047002801DBC0F10040D9
:1005C000002901DBC1F100418842704730B50B467C
:1005D000014600202022012409E021FA02F59D4273
:1005E00005D303FA02F5491B04FA02F52844151E47
:1005F000A2F10102F1DC30BD2DE9F05F05460020DB
:1006000092469B4688460646814640241BE0284683
:10061000414647462246FFF7A9FD53465A46C01AAF
:10062000914110D311461846224600F015FA2D1AB2
:1006300067EB01084F4622460120002100F00CFA2A
:1006400017EB00094E41201EA4F10104DFDC4846EF
:1006500031462A464346BDE8F09F0029A8BF7047AF
:10066000401C490008BF20F00100704710B4B0FAE8
:1006700080FC00FA0CF050EA010404BF10BC704783
:1006800049B1CCF1200421FA04F411FA0CF118BF9D
:10069000012121430843A3EB0C01CB1D4FEA00616C
:1006A0004FEA102042BF002010BC704700EBC3503F
:1006B00010440029A4BF10BC7047401C490008BF6B
:1006C00020F0010010BC7047420005D0C0F3C752B3
:1006D0005242914201DC0020704700EBC15070474C
:1006E00010B541000CD0C0F3C751962908DC7E2913
:1006F00009DC06DB410204D000F0004040F07E50EF
:1007000010BD002010BDC1F19604C4F1200100FA13
:1007100001F1E040FFF7A1FFA04010BD10B5141E8D
:1007200073F1000408DA401C41F1000192185B41AA
:100730001A4301D120F0010010BD2DE9F04D924681
:100740009B4611B1B1FA81F202E0B0FA80F2203298
:10075000904600F081F904460F4640EA0A0041EA5B
:100760000B0153465A46084313D0114653EA010081
:1007700019D0C8F140025046FFF7F8FC05460E4676
:1007800050465946424600F067F9084305D001201B
:1007900004E020463946BDE8F08D0020054346EAD6
:1007A000E0762C4337430A986305E40AA0EB08007F
:1007B0000022FD0A44EA47540A3002D500200146CF
:1007C000E9E7010510196941DDE9084500196941AA
:1007D000BDE8F04DA2E72DE9FE4F804681EA030017
:1007E000C00F0C46009021F0004123F00045B8EB0B
:1007F0000200A94105D24046214690461C460B46C0
:10080000024623F00040104347D0270DC7F30A00EB
:10081000C3F30A510290401A019040286BDAC3F3E7
:10082000130040F4801B0098924620B10023D2EBC5
:10083000030A63EB0B0B01985946C0F14002504686
:1008400000F00AF906460D4650465946019A00F056
:1008500012F910EB08006141002487EA115284EA82
:10086000E7731A4340D0009A62B3019A012A4FEA13
:10087000075215DC001B61EB02014FF0004202EA57
:100880000752CDE90042001C41F5801132462B464B
:10089000FFF753FF03B0BDE8F08F40462146F9E76C
:1008A000001B61EB0201001C41F5801300185B4145
:1008B0002018A2F5001747EB030140EAD570B619DE
:1008C0006D4111E06D084FEA360645EAC0754FEA02
:1008D0000752001B61EB0201001C41F58011490821
:1008E0004FEA30000019514132462B4603B0BDE8B3
:1008F000F04FFFF713BF0098012240000023D0EB18
:10090000020263EBE073009821464FEAE074B8EB13
:10091000000061EB0401E9E783F000435BE781F04D
:10092000004158E72DE9F04D81EA030404F0004B43
:1009300021F0004514464FF0000A23F0004150EA30
:10094000050220D054EA01021DD0C5F30A57024621
:10095000C5F31303C1F31300C1F30A5640F4801525
:1009600043F48013A7EB0608101BD64608F2FD38A7
:1009700073EB050002D308F1010801E092185B4116
:10098000B8F1000F03DA00200146BDE8F08D002029
:100990004FF48011064684460EE0171B73EB0507E3
:1009A00005D3121B63EB050306434CEA010C49080F
:1009B0004FEA300092185B4150EA0107EDD152EA4C
:1009C000030012D082EA040083EA0501084305D03F
:1009D000101BAB4106D20122002306E000224FF09B
:1009E000004302E06FF0010253101AEB06004CEBDB
:1009F000085110EB0A0041EB0B01BDE8F04DFFF789
:100A00008DBEC1F30A52C1F3130140F2FF3341F42A
:100A100080119A4202DA00200146704740F23343C7
:100A20009A42A2F2334202DC5242FFF79FBB00F02F
:100A300013B80000064C074D06E0E06840F00103E3
:100A400094E8070098471034AC42F6D3FFF774FBE4
:100A5000F4D4000814D50008202A04DB203A00FA58
:100A600002F1002070479140C2F1200320FA03F305
:100A7000194390407047202A06DBCB17203A41FAF1
:100A800002F043EAE07306E041FA02F3D040C2F11B
:100A90002002914008431946704730B58C1810F871
:100AA000012B12F00F0301D110F8013B120906D1FE
:100AB00010F8012B03E010F8015B01F8015B5B1EED
:100AC000F9D101E001F8013B521EFBD1A142E6D36E
:100AD000002030BD00BFFEE70148406870470000BD
:100AE000001000E02DE9F0410746002601F034F83F
:100AF0000F49B0FBF1F000FB07F800BFFFF7ECFF78
:100B0000054611E0FFF7E8FF0446AC420CD0AC42CA
:100B100002D9601B064403E0C5F1FF3020440644BF
:100B20002546464500D300E0ECE700BFBDE8F08174
:100B300040420F0010B5024800F006FA10BD000058
:100B40002805002010B5024800F0FEF910BD000095
:100B50006C05002010B5024800F0F6F910BD000049
:100B60005C04002010B5024800F0EEF910BD000052
:100B7000A004002010B5024800F0E6F910BD000006
:100B8000E404002030B590F840500124AC40C56B1F
:100B90006C60046863604468102C04D10468A2602F
:100BA0000468E16003E00468A1600468E26030BDAD
:100BB000704710B54FF4006000F056FC10BD10B542
:100BC000202000F051FC10BD2DE9F04706460F46ED
:100BD00015469846DDE9099A089C10480670FD20E4
:100BE0000E494870084687702812C8700D71084673
:100BF00080F80580200E8871200CC871200A0872C8
:100C00004C72084680F80A9080F80BA06B2008739D
:100C10000D21024808F0F4F8BDE8F087A801002093
:100C200070B505460C4608480570FE200649487018
:100C3000982088700846C4706B200871052102480E
:100C400008F0DEF870BD0000B801002072B600BFE9
:100C5000FEE700002DE9F047072002F011FD814674
:100C60004846FFF7F8FB8246FFF73DFC0746054A7A
:100C7000054BFFF77EFB0546FFF778FC0446204650
:100C8000BDE8F0879A9999999999693F2DE9F041C2
:100C9000052002F0F5FC80464046FFF7EAFB0646D9
:100CA0000022044BFFF765FB0446FFF75FFCBDE83D
:100CB000F08100000000C93F10B502F085FCB020B3
:100CC00002F04EFC02F0F8FB012002F049FC02F0B9
:100CD000F3FB772002F044FC02F0EEFB02F09AFCFA
:100CE00010BD00002DE9F04704460E463146144879
:100CF000FFF7CFFA82461349FFF7FDFA8146FFF767
:100D0000DEFB85B2EFB2C5F3062802F05DFCE0B26F
:100D100002F026FC02F0D0FB022002F021FC02F0DF
:100D2000CBFB384602F01CFC02F0C6FB404602F04A
:100D300017FC02F0C1FB02F06DFCBDE8F08700007B
:100D400000FEFF46000020410146002291F82100EC
:100D5000022808D00420886300BF002081F820000A
:100D600000BF012070470868006820F00E000B6883
:100D700018600868006820F001000B68186091F89E
:100D8000403001209840CB6B5860012081F8210051
:100D900000BF002081F8200000BF1046E2E70000FD
:100DA00070B50446002594F82100022803D00420E1
:100DB000A0630125C1E02068006820F00E002168D2
:100DC00008602068006820F00100216808605C4924
:100DD0002068884252D95A4978392068884201D11E
:100DE000012047E0564964392068884201D110202B
:100DF00040E0534950392068884201D1801539E0DC
:100E00004F493C392068884201D1801432E04C4976
:100E100028392068884202D14FF480302AE04849BE
:100E200014392068884202D14FF4801022E04449EE
:100E30002068884201D140041CE042492068884271
:100E400001D1012016E03F4914312068884201D1C8
:100E500010200FE03B4928312068884201D18015DD
:100E600008E038493C312068884201D1801401E013
:100E70004FF480303349091F086051E03049783918
:100E80002068884201D1012047E02D49643920685B
:100E9000884201D1102040E0294950392068884219
:100EA00001D1801539E026493C392068884201D1BA
:100EB000801432E0224928392068884202D14FF458
:100EC00080302AE01E4914392068884202D14FF44C
:100ED000801022E01A492068884201D140041CE0B9
:100EE00018492068884201D1012016E015491431C3
:100EF0002068884201D110200FE012492831206873
:100F0000884201D1801508E00E493C3120688842B2
:100F100001D1801401E04FF48030094980394860E4
:100F2000012084F8210000BF002084F8200000BFC9
:100F3000606B10B12046616B8847284670BD000089
:100F4000800002400804024070B50446E06B05686A
:100F50002068066894F84010042088402840002843
:100F600075D006F004000028FAD02068006800F070
:100F7000200028B92068006820F00400216808607B
:100F8000D5492068884254D9D349783920688842A5
:100F900001D1042049E0D04964392068884201D158
:100FA000402042E0CC4950392068884201D10015E8
:100FB0003BE0C9493C392068884202D14FF4804067
:100FC00033E0C54928392068884202D14FF4802097
:100FD0002BE0C14914392068884202D14FF48000C7
:100FE00023E0BD492068884201D1C0041DE0BB490F
:100FF0002068884201D1042017E0B84914312068E4
:10100000884201D1402010E0B4492831206888424C
:1010100001D1001509E0B1493C312068884202D174
:101020004FF4804001E04FF48020AC49091F086074
:1010300054E0A94978392068884201D104204AE067
:10104000A54964392068884202D1402043E04CE041
:10105000A14950392068884201D100153BE09E49E2
:101060003C392068884202D14FF4804033E09A49ED
:1010700028392068884202D14FF480202BE096491D
:1010800014392068884202D14FF4800023E092494D
:101090002068884201D1C0041DE090492068884240
:1010A00001D1042017E08D4914312068884201D114
:1010B000402010E0894928312068884201D100157C
:1010C00009E086493C312068884202D14FF48040D3
:1010D00001E04FF48020804980394860E06A0028B0
:1010E00002D02046E16A8847F4E094F840100220DC
:1010F00088402840002871D006F002000028FAD06D
:101100002068006800F0200040B92068006820F0E6
:101110000A0021680860012084F821006E492068D7
:10112000884254D96C4978392068884201D102201C
:1011300049E0694964392068884201D1202042E0B1
:10114000654950392068884201D140153BE0624929
:101150003C392068884202D14FF4005033E05E49A8
:1011600028392068884202D14FF400302BE05A49D8
:1011700014392068884202D14FF4001023E0564908
:101180002068884201D180041DE0544920688842CB
:1011900001D1022017E0514914312068884201D161
:1011A000202010E04D4928312068884201D14015A7
:1011B00009E04A493C312068884202D14FF400508E
:1011C00001E04FF400304549091F086054E04249EE
:1011D00078392068884202D102204AE057E03E492F
:1011E00064392068884201D1202042E03A495039D0
:1011F0002068884201D140153BE037493C392068DE
:10120000884202D14FF4005033E033492839206836
:10121000884202D14FF400302BE02F491439206866
:10122000884202D14FF4001023E02B492068884205
:1012300001D180041DE029492068884201D10220A3
:1012400017E0264914312068884201D1202010E09F
:10125000224928312068884201D1401509E01F4900
:101260003C312068884202D14FF4005001E04FF435
:10127000003019498039486000BF002084F8200000
:1012800000BFA06A30B32046A16A884722E094F8E4
:101290004010082088402840E0B106F00800C8B19E
:1012A0002068006820F00E002168086094F8401063
:1012B00001208840E16B48600120A06384F8210090
:1012C00000BF002084F8200000BF206B10B1204632
:1012D000216B884770BD0000800002400804024076
:1012E0000146002209B9012070471E4B0868984248
:1012F0000BD21D4B0868C01A1423B0FBF3F080001A
:10130000086419480838C8630AE0164B0868C01A10
:101310001423B0FBF3F08000086412480838C86357
:10132000022081F821000868026843F6F0708243C9
:10133000D1E901031843CB6818430B6918434B6983
:1013400018438B691843CB6918430243086802604D
:1013500000208863012081F82100002081F820000E
:1013600000BFC1E708040240080002402DE9F04137
:1013700004460D4616461F464FF0000800BF94F87D
:101380002000012802D10220BDE8F081012084F86C
:10139000200000BF94F8210001282CD1022084F8FD
:1013A00021000020A0632068006820F0010021686F
:1013B00008603B46324629462046FFF7E3FBE06AD9
:1013C00030B12068006840F00E00216808600BE032
:1013D0002068006820F00400216808602068006828
:1013E00040F00A00216808602068006840F00100B1
:1013F0002168086006E000BF002084F8200000BFDC
:101400004FF002084046BFE710B50446B4F5006F40
:101410000CD14FF400610E4800F0D4F9012805D139
:10142000C0020C49086001200B490870202C0ED125
:101430000A48007858B12021094800F0C3F9012872
:1014400005D120200349086001200649087010BD1D
:10145000000C0140140401401F000020C8010020BE
:10146000000801402300002010B50446044800682D
:10147000204020B1024804602046FFF7C5FF10BDA0
:10148000140401402DE9F847024600239C467BE105
:101490004FF0010808FA03F4D1F8008008EA0400CC
:1014A000A0427DD1DFF8F4A2D1F80480A8EB0A09AC
:1014B000D0453AD014DCB8F1030F50D009DCB8F1B4
:1014C000000F31D0B8F1010F1CD0B8F1020F49D193
:1014D00020E0B8F1110F18D0B8F1120F42D11EE080
:1014E000B9F5881F25D006DCB9F5803F20D0B9F5C5
:1014F000801F37D11AE0B9F5001F18D0B9F5041FC5
:1015000030D117E0D1F80CC02DE0D1F80C8008F1F3
:10151000040C28E0D1F80C8008F1080C23E0D1F885
:101520000C8008F10C0C1EE000BF00BF00BF00BF24
:1015300000BF00BFD1F80880B8F1000F02D14FF012
:10154000040C0BE0D1F80880B8F1010F03D14FF083
:10155000080C146102E04FF0080C546103E04FF0F6
:10156000000C00E000BF00BFFF2801D8904601E05A
:1015700002F104084646FF2802D84FEA830803E038
:10158000A3F108084FEA88084746D6F800804FF0D4
:101590000F0909FA07F928EA09080CFA07F900E027
:1015A0007AE048EA0908C6F80080D1F8048008F01B
:1015B0008058B8F1805F6FD100BFDFF8E481D8F8C0
:1015C000188048F00108DFF8D891C9F81880C8469B
:1015D000D8F8188008F00108CDF8008000BF00BFDF
:1015E0004FEAB9384FEA930958F829504FEA8378FF
:1015F0004FEA18794FF00F0808FA09F825EA0805AC
:10160000DFF8A081424502D14FF0000824E0DFF866
:101610009881424502D14FF001081DE0DFF88C812E
:10162000424502D14FF0020816E0DFF884814245BE
:1016300002D14FF003080FE0DFF87881424502D174
:101640004FF0040808E0DFF87081424502D14FF006
:10165000050801E04FF006084FEA83794FEA19794F
:1016600008FA09F848EA0505DFF850814FEA9309BE
:1016700048F82950D1F8048008F48018B8F5801F84
:101680000BD1DFF83C81D8F8008048EA0008DFF889
:101690003091C9F800800AE075E0DFF82481D8F8BD
:1016A000008028EA0008DFF81891C9F80080D1F816
:1016B000048008F40018B8F5001F0ED1DFF800818F
:1016C00008F10408D8F8008048EA0008DFF8F09034
:1016D00009F10409C9F800800DE0DFF8E48008F1A1
:1016E0000408D8F8008028EA0008DFF8D49009F14F
:1016F0000409C9F80080D1F8048008F40038B8F56E
:10170000003F0ED1DFF8B880A8F10408D8F80080B7
:1017100048EA0008DFF8A890A9F10409C9F8008098
:101720000DE0DFF89C80A8F10408D8F8008028EAD2
:101730000008DFF88C90A9F10409C9F80080D1F8FD
:10174000048008F48038B8F5803F0ED1DFF870804F
:10175000A8F10808D8F8008048EA0008DFF860908F
:10176000A9F10809C9F800800DE0DFF85480A8F15C
:101770000808D8F8008028EA0008DFF84490A9F1AA
:101780000809C9F800805B1CD1F8008028FA03F82A
:10179000B8F1000F7FF47CAEBDE8F88700001110AF
:1017A0000010024000080140000C01400010014000
:1017B0000014014000180140001C014008000140D5
:1017C00008040140024693680B400BB1012000E081
:1017D000002070470AB1016101E00B04036170470A
:1017E000044840680449B0FBF1F04FF47A71484373
:1017F00070470000001000E00084D717034800681D
:1018000003490978084401490860704790010020A5
:101810009801002010B50848006840F01000064903
:101820000860032000F098F8002000F007F800F0AE
:101830001BF8002010BD00000020024001460848AF
:10184000006840F08070064A10600020054A506031
:101850001046006840F00100106000207047000052
:10186000FCED00E0001000E008B500BF1148806901
:1018700040F001000F4988610846806900F00100CE
:10188000009000BF00BF00BF0846C06940F0805014
:10189000C8610846C06900F08050009000BF00BFDA
:1018A00000BF0549486820F0E06040F000704860E3
:1018B00000BF08BD0010024000000140014608467C
:1018C000002809DB00F01F0301229A4043099B0016
:1018D00003F1E023C3F8002100BF70472DE9F05F5A
:1018E00080460D461646002704F0EEFD07463946B1
:1018F0002A46334601F00700C0F1070ABAF1040F87
:1019000002D94FF0040A01E0C0F1070AD14600F104
:10191000040ABAF1070F02D24FF0000A01E0A0F169
:10192000030AD4464FF0010A0AFA09FAAAF1010A99
:101930000AEA020A0AFA0CFA4FF0010B0BFA0CFB46
:10194000ABF1010B0BEA030B4AEA0B0421464046BC
:1019500004F0C2FDBDE8F09F00BF00F00702064B97
:1019600019684FF6FF031940044B0B4343EA022169
:10197000014B196000BF70470CED00E00000FA0554
:1019800070B504460D460CB9012070BD5A48006878
:1019900000F00700A8420ED25748006820F0070068
:1019A0002843554908600846006800F00700A8422F
:1019B00001D00120E9E7207800F0020002281DD1C3
:1019C000207800F00400042805D14C48406840F419
:1019D000E0604A494860207800F00800082805D1F6
:1019E0004648406840F46050444948604348406875
:1019F00020F0F000A168084340494860207800F0DA
:101A0000010078B36068012806D13C48006800F402
:101A1000003090B90120B8E76068022806D1374845
:101A2000006800F0007040B90120AEE7334800685C
:101A300000F0020008B90120A7E73048406820F014
:101A40000300616808432D494860FFF7C9FE064658
:101A500009E0FFF7C5FE801B41F28831884202D9B8
:101A6000032092E707E02548406800F00C00616819
:101A7000B0EB810FEDD12048006800F00700A842CC
:101A80000ED91D48006820F0070028431A49086055
:101A90000846006800F00700A84201D0012074E762
:101AA000207800F00400042807D11448406820F48E
:101AB000E060E168084311494860207800F00800C0
:101AC000082808D10D48406820F46050216940EA98
:101AD000C1000A49486000F03FF808494968C1F36D
:101AE0000311074A515CC84006490860064800686F
:101AF000FFF7A4FE002048E700200240001002404B
:101B0000AAD400089C01002094010020014800682C
:101B1000704700009C01002000B5FFF7F7FF044963
:101B20004968C1F30221034A515CC84000BD00006E
:101B300000100240BAD4000800B5FFF7E7FF0449DF
:101B40004968C1F3C221034A515CC84000BD00008E
:101B500000100240BAD4000870B500210022002411
:101B600000230020134D696801F00C05F5B1042D28
:101B700002D0082D19D101E00F4819E00F4DC1F333
:101B80008346AB5D01F4803555B10A4D6D68C5F3F0
:101B900040450B4E725D084D5D43B5FBF2F402E02B
:101BA000084D03FB05F4204602E000BF024800BFD9
:101BB00000BF70BD0010024000127A0098D40008E7
:101BC000A8D4000800093D00F8B504460CB901206E
:101BD000F8BD207800F00100002878D0F84840686F
:101BE00000F00C0004280CD0F548406800F00C0010
:101BF000082811D1F248406800F48030B0F5803FE9
:101C00000AD1EF48006800F4003000285FD0606817
:101C100000285CD10120DBE700BF6068B0F5803FA1
:101C200006D1E748006840F48030E549086028E0C4
:101C3000606858B9E248006820F48030E0490860E4
:101C40000846006820F4802008601AE06068B0F55B
:101C5000A02F0BD1DA48006840F48020D8490860F2
:101C60000846006840F4803008600AE0D448006804
:101C700020F48030D24908600846006820F48020B3
:101C8000086000BF606888B1FFF7AAFD054606E05E
:101C9000FFF7A6FD401B642801D9032098E7C84838
:101CA000006800F400300028F2D010E0FFF798FD43
:101CB000054606E0FFF794FD401B642801D9032088
:101CC00086E7BF48006800F400300028F2D1207891
:101CD00000F00200022857D1B948406800F00C001B
:101CE00050B1B748406800F00C00082818D1B4483B
:101CF000406800F4803098B9B148006800F00200F4
:101D000020B12069012801D0012061E7AC480068BA
:101D100020F0F800616940EAC100A949086033E099
:101D20002069E8B10120A7490860FFF759FD054681
:101D300006E0FFF755FD401B022801D9032047E7C5
:101D40009F48006800F002000028F2D09C4800681C
:101D500020F0F800616940EAC1009949086013E089
:101D6000002098490860FFF73BFD054606E0FFF7B5
:101D700037FD401B022801D9032029E7904800685D
:101D800000F002000028F2D1207800F008000828B6
:101D90002DD1A069B8B101208B490860FFF720FD63
:101DA000054606E0FFF71CFD401B022801D9032071
:101DB0000EE78348406A00F002000028F2D00120BC
:101DC00003F0E8FB13E000207F490860FFF708FDFF
:101DD000054606E0FFF704FD401B022801D9032059
:101DE000F6E67748406A00F002000028F2D1207839
:101DF00000F00400042873D100277148C06900F086
:101E0000805070B900BF6E48C06940F080506C4986
:101E1000C8610846C06900F08050009000BF00BF54
:101E200001276A48006800F48070B0B9674800680C
:101E300040F4807065490860FFF7D2FC054606E073
:101E4000FFF7CEFC401B642801D90320C0E65F48A1
:101E5000006800F480700028F2D000BFE06801281C
:101E600006D15748006A40F001005549086227E052
:101E7000E06858B95248006A20F0010050490862F1
:101E80000846006A20F00400086219E0E0680528AE
:101E90000BD14B48006A40F00400494908620846EB
:101EA000006A40F0010008620AE04548006A20F03C
:101EB0000100434908620846006A20F004000862F5
:101EC00000BFE068A0B1FFF78BFC054609E0FFF713
:101ED00087FC401B41F28831884202D9032077E613
:101EE00022E03748006A00F002000028EFD012E03C
:101EF000FFF776FC054608E0FFF772FC401B41F255
:101F00008831884201D9032062E62D48006A00F03A
:101F100002000028F0D1012F05D12948C06920F026
:101F200080502749C86100BFE069C8B324484068B1
:101F300000F00C00082860D0E069022848D1002099
:101F400020490866FFF74CFC054606E0FFF748FC11
:101F5000401B022801D903203AE61948006800F026
:101F600000700028F2D1206AB0F5803F07D11448F4
:101F7000406820F40030A168084311494860D4E962
:101F8000080108430E49496821F4741108430C49BB
:101F9000486001200B490866FFF722FC054607E070
:101FA0003DE0FFF71DFC401B022801D903200FE68E
:101FB0000348006800F000700028F2D02FE0000015
:101FC0000010024000004242800442420070004083
:101FD000002014490866FFF703FC054606E0FFF7FA
:101FE000FFFB401B022801D90320F1E50E480068E1
:101FF00000F000700028F2D111E0E069012800D162
:10200000E6E50948466806F48031206A814204D139
:1020100006F47011606A814201D00120D8E50020E9
:10202000D6E50000000042420010024070477047B1
:1020300030B502460B4600BF92F83C00012801D1A2
:10204000022030BD012082F83C0000BF022082F84F
:102050003D00106844681068816824F070041868B6
:10206000044310684460144D1068A84213D0134D07
:102070001068A8420FD01068B0F1804F0BD0104DFF
:102080001068A84207D00F4D1068A84203D00E4D2B
:102090001068A84205D121F08001586801431068FA
:1020A0008160012082F83D0000BF002082F83C00E2
:1020B00000BF00BFC5E70000002C01400034014014
:1020C0000004004000080040000C004010B5044629
:1020D0000CB9012010BD94F83D0028B9002084F807
:1020E0003C00204600F026F8022084F83D00211D27
:1020F000206803F051FC012084F8460000BF84F8FA
:102100003E0001213F20015540200155412001554D
:1021100000BF00BF012084F8420043200155442045
:1021200001554520015500BF012084F83D000020E5
:10213000D0E7000010B586B004460020029003905E
:10214000049005903D492068884224D100BF3C4856
:10215000806940F400603A4988610846806900F46B
:102160000060019000BF00BF00BF0846806940F0DA
:10217000040088610846806900F00400019000BFF7
:1021800000BFC814029000200390049002A92D48BB
:10219000FFF778F94FE02068B0F1804F16D100BF0B
:1021A0002748C06940F001002549C8610846C06958
:1021B00000F00100019000BF00BF002211461C206A
:1021C000FFF78CFB1C20FFF779FB34E01E492068E9
:1021D000884216D100BF1A48C06940F00200184971
:1021E000C8610846C06900F00200019000BF00BF4E
:1021F000002211461D20FFF771FB1D20FFF75EFB3B
:1022000019E012492068884215D100BF0C48C06906
:1022100040F004000A49C8610846C06900F00400A3
:10222000019000BF00BF002211461E20FFF756FBA1
:102230001E20FFF743FB06B010BD0000002C01403C
:102240000010024000080140000400400008004067
:10225000014691F83D00012801D00120704702207D
:1022600081F83D000868C06840F001000B68D86044
:10227000164B0868984213D0154B086898420FD047
:102280000868B0F1804F0BD0124B0868984207D015
:10229000114B0868984203D0104B086898420CD143
:1022A0000868806800F00702062A0CD008680068F9
:1022B00040F001000B68186005E00868006840F015
:1022C00001000B6818600020C8E70000002C0140E6
:1022D000003401400004004000080040000C0040B1
:1022E0002DE9F04104460D46002700BF94F83C005C
:1022F000012802D10220BDE8F081012084F83C00D1
:1023000000BF022084F83D002068866826F077062A
:1023100026F47F46206886602868502833D00CDC7D
:10232000202850D004DC00284BD0102851D149E09F
:10233000302849D040284CD139E060282DD0702871
:1023400007D0B0F5805F03D0B0F5005F41D10DE05C
:1023500041E0D5E902136A68206803F07CFB20683D
:10236000866846F077062068866034E0D5E9021377
:102370006A68206803F06FFB2068806840F4804042
:102380002168886027E0EA686968206803F054FCE7
:102390005021206803F06AFB1DE0EA686968206844
:1023A00003F09CFC6021206803F060FB13E0EA6806
:1023B0006968206803F040FC4021206803F056FB68
:1023C00009E000BF00BF00BF2968206803F04EFB92
:1023D00001E0012700BF00BF012084F83D0000BFDD
:1023E000002084F83C0000BF384684E770472DE9A0
:1023F000F04104460D461646002700BF94F83C0005
:10240000012802D10220BDE8F081012084F83C00BF
:1024100000BF96B9EB68D5E90012206803F020FCF4
:102420002068806920F00C0021688861206880693C
:10243000A96808432168886141E0042E13D1EB6844
:10244000D5E90012206803F05DFC2068806920F463
:1024500040602168886120688069A96840EA01209D
:10246000216888612BE0082E12D1EB68D5E90012B3
:10247000206803F064FC2068C06920F00C0021682B
:10248000C8612068C069A96808432168C86116E06E
:102490000C2E13D1EB68D5E90012206803F06BFC19
:1024A0002068C06920F440602168C8612068C06964
:1024B000A96840EA01202168C86100E0012700BF47
:1024C000002084F83C0000BF38469CE710B5044665
:1024D0000CB9012010BD94F83D0028B9002084F803
:1024E0003C00204600F025F8022084F83D00211D24
:1024F000206803F051FA012084F8460000BF84F8F8
:102500003E0001213F200155402001554120015549
:1025100000BF00BF012084F8420043200155442041
:1025200001554520015500BF012084F83D000020E1
:10253000D0E7704710B5044620680069C0F340003A
:10254000D8B12068C068C0F34000B0B16FF002009D
:1025500021680861012020772068806900F003006D
:1025600018B12046FFF742FF05E0204600F00AF9C7
:10257000204600F0BEF90020207720680069C0F3F3
:102580008000D8B12068C068C0F38000B0B16FF09F
:10259000040021680861022020772068806900F427
:1025A000407018B12046FFF721FF05E0204600F0FB
:1025B000E9F8204600F09DF90020207720680069A6
:1025C000C0F3C000D8B12068C068C0F3C000B0B18B
:1025D0006FF0080021680861042020772068C06936
:1025E00000F0030018B12046FFF700FF05E0204689
:1025F00000F0C8F8204600F07CF900202077206821
:102600000069C0F30010D8B12068C068C0F30010A2
:10261000B0B16FF0100021680861082020772068B1
:10262000C06900F4407018B12046FFF7DFFE05E0F6
:10263000204600F0A7F8204600F05BF90020207744
:102640002068006900F0010058B12068C06800F0FF
:10265000010030B16FF0010021680861204600F0F0
:1026600017FA20680069C0F3C01058B12068C0682C
:10267000C0F3C01030B16FF08000216808612046BF
:10268000FFF7D4FC20680069C0F3801058B12068BF
:10269000C068C0F3801030B16FF04000216808615D
:1026A000204600F037FA20680069C0F3401058B1A6
:1026B0002068C068C0F3401030B16FF0200021687E
:1026C00008612046FFF7B3FC10BD000010B586B0CE
:1026D0000446002002900390049005902068B0F119
:1026E000804F28D100224FF400412148FFF772F8B3
:1026F00000BF2048806940F004001E4988610846F8
:10270000806900F00400019000BF00BF4FF400405A
:10271000029002200390059002A91548FEF7B2FE30
:1027200000BF1549486820F4407040F0E06040F474
:10273000807048601AE011492068884216D100BFB5
:102740000C48806940F008000A49886108468069A1
:1027500000F00800019000BF00BF88150290022021
:102760000390059002A90648FEF78CFE06B010BD46
:102770000008014000100240000001400008004035
:10278000000C014070472DE9F04104460D46164605
:10279000002700BF94F83C00012802D10220BDE8C8
:1027A000F081012084F83C0000BF36B1042E1BD01C
:1027B000082E31D00C2E5ED145E02946206803F06A
:1027C0005FF92068806940F008002168886120680E
:1027D000806920F004002168886120688069296987
:1027E00008432168886148E02946206803F080F9A1
:1027F0002068806940F400602168886120688069F1
:1028000020F480602168886120688069296940EA35
:1028100001202168886130E02946206803F0A6F98C
:102820002068C06940F008002168C8612068C0695C
:1028300020F004002168C8612068C0692969084344
:102840002168C86119E02946206803F0CBF92068A7
:10285000C06940F400602168C8612068C06920F444
:1028600080602168C8612068C069296940EA012048
:102870002168C86101E0012700BF00BF00BF002040
:1028800084F83C0000BF384689E710B504460CB90F
:10289000012010BD94F83D0028B9002084F83C00C8
:1028A000204600F025F8022084F83D00211D206814
:1028B00003F072F8012084F8460000BF84F83E005F
:1028C00001213F200155402001554120015500BF05
:1028D00000BF012084F842004320015544200155E7
:1028E0004520015500BF012084F83D000020D0E7BD
:1028F0007047704770B504460D4615B994F83E0010
:102900000BE0042D02D13F20005D06E0082D02D12E
:102910004020005D01E04120005D012801D0012040
:1029200070BD1DB9022084F83E000EE0042D03D1D5
:1029300002213F20015508E0082D03D1022140204B
:10294000015502E00221412001550122294620685B
:1029500003F070F81F492068884203D01E492068A0
:10296000884201D1012000E0002028B12068406C9D
:1029700040F400402168486416492068884213D01A
:102980001549206888420FD02068B0F1804F0BD0E5
:1029900012492068884207D011492068884203D034
:1029A0001049206888420CD12068806800F0070632
:1029B000062E0CD02068006840F0010021680860F5
:1029C00005E02068006840F00100216808600020F0
:1029D000A6E70000002C0140003401400004004044
:1029E00000080040000C004030B504460D460022AF
:1029F0002946206803F01EF823492068884203D046
:102A000022492068884201D1012000E0002090B1D5
:102A100000BF2068006A41F21111084050B92068D7
:102A2000006A8910084028B92068406C20F40040F2
:102A30002168486400BF00BF2068006A41F211119C
:102A4000084050B92068006A8910084028B92068F9
:102A5000006820F001002168086000BF1DB9012056
:102A600084F83E000EE0042D03D101213F200155E2
:102A700008E0082D03D101214020015502E0012189
:102A800041200155002030BD002C014000340140A0
:102A9000194A016891422DD118490988491C174AE1
:102AA000118017490988491C154A11801549098860
:102AB000491C144A118011490988642905D1012152
:102AC000114A117000210D4A11800D4909883229DF
:102AD00005D101210D4A11700021094A11800949CF
:102AE0000988B1F57A7F05D10121094A11700021C9
:102AF000044A11807047000000040040900000204C
:102B0000920000209400002001000020000000201E
:102B1000030000207047F8B504460E46174694F8A7
:102B2000420020282ED106B10FB90120F8BD0120A6
:102B30002063002060633A463146204603F060FB84
:102B40000546EDB9206B012819D100BF0020009087
:102B500020680068009020684068009000BF00BFB7
:102B600000BF00BF21680C3151E8001F41F0100088
:102B700021680C3141E80002002AF3D100E0012570
:102B80002846D3E70220D1E738B505460C463D4933
:102B9000286888421ED100BF002000903A48006893
:102BA00000680090384800684068009000BF00BF8F
:102BB000354800F079F8224634493548FDF7E6FA01
:102BC00001203449087034490C7064222F492E4882
:102BD000FFF7A1FF31492868884252D100BF002089
:102BE00000902F480068006800902D4800684068F9
:102BF000009000BF00BF2A4800F056F80120254988
:102C0000087025490C70042C08D12249087022490B
:102C10000C7022461D491E48FDF7B8FA042C2BDA29
:102C20001B49204A1278881822461849FDF7AEFA47
:102C30001C48007820441B49087008460078042886
:102C400003DA00201349087016E0164800780428BB
:102C500009D101200F49087004200F490870002095
:102C60001049087008E00F480078042804DD0020AF
:102C7000084908700B490870642204490848FFF7A6
:102C80004AFF38BD003801408403002020030020A3
:102C9000C8010020250000201C0000200048004042
:102CA000140400209900002070B504460025206817
:102CB0004069C0F3C01594F84100212817D1B5B17F
:102CC00000BF00BF2168143151E8001F21F08000CF
:102CD0002168143141E80002002AF3D100BFA06B43
:102CE00010B1A06BFEF730F8204603F079F92068A8
:102CF0004069C0F3801594F84200222817D1B5B17D
:102D000000BF00BF2168143151E8001F21F04000CE
:102D10002168143141E80002002AF3D100BFE06BC2
:102D200010B1E06BFEF710F8204603F013F9002015
:102D300070BD70472DE9F84F04462068056820688B
:102D4000C668206847694FF00009CA4605F00F09B8
:102D5000B9F1000F0AD105F0200038B106F02000CB
:102D600020B1204603F04FF9BDE8F88FB9F1000F0C
:102D70007BD007F0010018B906F49070002874D0D9
:102D800005F0010030B106F4807018B1606C40F0BD
:102D90000100606405F0040030B107F0010018B1D3
:102DA000606C40F00200606405F0020030B107F092
:102DB000010018B1606C40F00400606405F0080088
:102DC00048B106F0200010B907F0010018B1606C9E
:102DD00040F008006064606C002845D005F02000D9
:102DE00028B106F0200010B1204603F00CF920684D
:102DF0004069C0F3801A606C00F0080010B9BAF1A5
:102E0000000F2CD0204603F0A5F82068406900F0A0
:102E1000400000B300BF00BF2168143151E8001F1B
:102E200021F040002168143141E80002002AF3D16A
:102E300000BFE06B50B17748E16B4863E06BFDF792
:102E4000AFFF88B1E06B416B88470DE02046FFF78C
:102E500070FF09E009E02046FFF76BFF04E0204621
:102E6000FFF767FF002060647EE7206B012877D1C1
:102E700005F01000002873D006F010000028FAD0EA
:102E800000BF002000902068006800902068406823
:102E9000009000BF00BF2068406900F0400000289B
:102EA0005FD0E06B006840681FFA80F8B8F1000F4F
:102EB00055D0A08D404552DDA4F82E80E06B80698E
:102EC000202843D000BF00BF21680C3151E8001F0B
:102ED00021F4807021680C3141E80002002AF3D10E
:102EE00000BF00BF00BF2168143151E8001F21F06E
:102EF00001002168143141E80002002AF3D100BF2B
:102F000000BF00BF2168143151E8001F21F04000CC
:102F10002168143141E80002002AF3D100BF2020CB
:102F200084F842000020206300BF00BF21680C31FC
:102F300051E8001F21F0100021680C3141E8000227
:102F4000002AF3D100BFE06BFDF7FEFE02206063B4
:102F5000A08DE28D801A81B22046FFF715FE03E7AF
:102F600042E0A08DE18D401A1FFA80F8E08DD0B3C9
:102F7000B8F1000F37D000BF00BF21680C3151E815
:102F8000001F21F4907021680C3141E80002002AF2
:102F9000F3D100BF00BF00BF2168143151E8001F0A
:102FA00021F001002168143141E80002002AF3D128
:102FB00000BF202084F842000020206300BF00BF33
:102FC00021680C3151E8001F21F0100021680C31FC
:102FD00041E80002002AF3D100BF022060634146AD
:102FE0002046FFF7D1FDBFE605F0800030B106F0C6
:102FF000800018B1204603F067F9B5E605F04000FF
:1030000030B106F0400018B1204602F0D9FFABE61F
:1030100000BFA9E6B35D000810B504460CB9012055
:1030200010BDA06900B100E000BF94F8410028B9CC
:10303000002084F84000204600F02AF8242084F87C
:1030400041002068C06820F400502168C860204614
:1030500003F058F82068006920F490402168086166
:103060002068406920F02A00216848612068C06813
:1030700040F400502168C86000206064202084F87B
:10308000410084F842000020606300BFC8E70000F0
:1030900010B586B00446002002900390049005907D
:1030A000A4492068884273D100BFA348806940F4D6
:1030B0008040A14988610846806900F48040019001
:1030C00000BF00BF00BF0846806940F0080088616B
:1030D0000846806900F00800019000BF00BF402052
:1030E0000290022003900320059002A99348FEF766
:1030F000C9F98020029000200390049002A98F4813
:10310000FEF7C0F900BF8E49486840F0E06040F02B
:103110000400486000BF8B488B490860102048605D
:103120000021894881608021C160002101614161E5
:103130008161C161FEF7D4F808B1FDF787FD00BFDA
:103140008148A063446200BF7E4814307F49086014
:103150000020486000217D4881608021C1600021FD
:10316000016141618161C161FEF7BAF808B1FDF703
:103170006DFD00BF7548E063446200BF0022114648
:103180002520FEF7ABFB2520FEF798FBCFE0FFE7FD
:103190006F492068884250D100BF6748C06940F439
:1031A00000306549C8610846C06900F400300190EC
:1031B00000BF00BF00BF0846806940F0040088617E
:1031C0000846806900F00400019000BF00BF0420A1
:1031D0000290022003900320059002A95D48FEF7AB
:1031E00051F90820029000200390049002A9594848
:1031F000FEF748F953483C305749086010204860B2
:103200000021554881608021C16000210161416138
:103210008161C161FEF764F808B1FDF717FD00BFD9
:103220004D48A063446200BF002211462620FEF7ED
:1032300055FB2620FEF742FB79E04849206888428A
:1032400075D100BF3C48C06940F480203A49C8614C
:103250000846C06900F48020019000BF00BF00BF95
:103260000846806940F0100088610846806900F0D7
:103270001000019000BF00BF0815029002200390CB
:103280000320059002A93648FEF7FCF84FF40060D1
:10329000029000200390049002A93148FEF7F2F852
:1032A00000BF2749486820F0300040F0E06040F05F
:1032B0001000486000BF234828382A4908601020C1
:1032C00048600021274881608021C16000210161A0
:1032D00041618161C161FEF703F808B1FDF7B6FCF9
:1032E00000BF2048A063446200BF164814381E493E
:1032F00008600020486000211B4881608021C16077
:103300000021016141618161C161FDF7E9FF08B1FF
:10331000FDF79CFC00BF1448E063446200BF00223C
:1033200011462720FEF7DAFA2720FEF7C7FA06B083
:1033300010BD00000038014000100240000C0140A8
:1033400000000140440002405C040020A004002072
:103350000044004000080140E40400200048004010
:1033600000100140280500206C05002070477047C0
:103370002DE9F84F04460E46174699464FF0000ACD
:1033800094F8410020284AD106B117B90120BDE8C0
:10339000F88F00206064212084F84100FEF720FAB5
:1033A0008246A784E784A068B0F5805F04D12069D5
:1033B00010B90025B04602E035464FF000081BE08A
:1033C0005346002280212046CDF8009002F0ACFF49
:1033D00008B10320DBE745B9B8F80000C0F30800E6
:1033E0002168486008F1020803E0287821684860F5
:1033F0006D1CE08C401EE084E08C0028E0D1534638
:10340000002240212046CDF8009002F08DFF08B147
:103410000320BCE7202084F841000020B7E7022009
:10342000B5E70000F7B50446154694F8410020289A
:1034300036D1019800B10DB90120FEBD019820627E
:10344000A584E58400206064212084F841001548AB
:10345000A16B88621448A16BC8621448A16B086311
:103460000020A16B486301AE23681A1D31682B460A
:10347000A06BFDF77BFF6FF040002168086000BF84
:1034800000BF2168143151E8001F41F0800021681D
:10349000143141E80002002AF3D100BF0020CCE73C
:1034A0000220CAE7EF5E0008475F0008C75D00081A
:1034B0007047704700BFFEE710B500200F49086055
:1034C0000F48006820F470200D4908600846006825
:1034D00040F44030086000200A49C1F89001022001
:1034E000FDF700FB0120054908600220FDF7FAFA0C
:1034F00000200449C1F88C0110BD00008C812142DC
:10350000000C01400080214200B585B000BF10488A
:10351000806940F008000E4988610846806900F023
:103520000800009000BF00BF182001900120029009
:1035300003900320049001A90648FDF7A3FF012092
:10354000054908600549C1F88C0105B000BD0000BF
:1035500000100240000C0140908121420080214275
:1035600070B504461548006820F4702013490860BF
:103570000846006840F440300860002010490860A8
:10358000002517E0E0090E49091D08606006040ED9
:103590000220FDF7A7FA01200A49C1F88C01022098
:1035A000FDF7A0FA0020064908600220FDF79AFA0C
:1035B000681CC5B2082DE5DB70BD0000000C0140A1
:1035C0008C8121420080214210B50F48006820F410
:1035D00070200D4908600846006840F440300860DB
:1035E00001200A4908600A49C1F88C010420FDF74E
:1035F00079FA0020054908600420FDF773FA0020DD
:103600000349C1F88C0110BD000C0140908121429A
:103610000080214210B50F48006820F470200D4949
:1036200008600846006840F44030086000200A49FD
:1036300008600A49C1F890010420FDF753FA0120FF
:10364000054908600549C1F890010420FDF74AFAD0
:1036500010BD0000000C01408C81214200802142FD
:1036600010B50021084600F03DF84BF2031101208F
:1036700000F038F84FF48051022000F033F810BD0C
:1036800070B505460024002600F046F9802000F0C1
:103690000FF900F08DF908B1002070BD284600F048
:1036A00007F900F085F908B10020F6E700F034F9D9
:1036B000812000F0FDF800F07BF908B10020ECE774
:1036C000012000F0BDF804462402012000F0B8F803
:1036D00004432402002000F0B3F8044300F042F950
:1036E0002009DAE72DE9F04105460C46260AE7B243
:1036F00000F012F9802000F0DBF800F059F910B169
:103700000020BDE8F081284600F0D2F800F050F922
:1037100008B10020F5E7304600F0CAF800F048F99B
:1037200008B10020EDE7384600F0C2F800F040F99B
:1037300008B10020E5E700F015F94FF4FA60FDF755
:10374000D1F90120DDE7000010B500200F49086025
:103750000F48006820F070400D4908600846006876
:1037600040F04050086000200A49C1F89C01022046
:10377000FDF7B8F90120054908600220FDF7B2F90C
:1037800000200449C1F8A00110BD0000A0012242A0
:10379000001001400000224200B585B000BF104873
:1037A000806940F010000E4988610846806900F089
:1037B0001000009000BF00BF4FF4C07001900120C6
:1037C000029003900320049001A90648FDF75AFED9
:1037D0000120054908600549C1F8A00105B000BDF8
:1037E00000100240001001409C01224200002242D1
:1037F00010B500200F4908600F48006820F07040A5
:103800000D4908600846006840F0405008600120FB
:103810000A49C1F89C010220FDF764F9012005491D
:1038200008600220FDF75EF900200449C1F8A001FC
:1038300010BD0000A0012242001001400000224201
:1038400070B5054600241748006820F070401549FF
:1038500008600846006840F000400860002616E056
:103860000020114908600220FDF73CF901200F49B2
:10387000C1F8A0016006040E0B488438006808B146
:10388000601CC4B20120FDF72DF9701CC6B2082ED1
:10389000E6DB15B9FFF7ACFF01E0FFF755FF204667
:1038A00070BD000000100140A00122420000224231
:1038B00070B504461548006820F070401349086050
:1038C0000846006840F04050086000201049086039
:1038D000002517E0E0090E49091F08606006040E84
:1038E0000220FDF7FFF801200A49C1F8A0010220DB
:1038F000FDF7F8F80020064908600220FDF7F2F80D
:10390000681CC5B2082DE5DB70BD00000010014049
:10391000A00122420000224210B50F48006820F0AA
:1039200070400D4908600846006840F0405008604B
:1039300001200A4908600A49C1F8A0010420FDF7E6
:10394000D1F80020054908600420FDF7CBF80020DD
:103950000349C1F8A00110BD001001409C012242A2
:103960000000224210B50F48006820F070400D4959
:1039700008600846006840F04050086000200A498E
:1039800008600A49C1F89C010420FDF7ABF801204A
:10399000054908600549C1F89C010420FDF7A2F81B
:1039A00010BD000000100140A00122420000224290
:1039B00010B500241448006820F0704012490860D7
:1039C0000846006840F00040086001200F49086088
:1039D000FDF788F801200E49C1F8A001FDF782F833
:1039E00007E0601CC4B2FA2C03DDFFF7BBFF012027
:1039F00010BD0648803800680028F2D10349091D2F
:103A0000086000BFF4E70000001001409C01224262
:103A1000000022422DE9F05F04460E4615466D482F
:103A20000078012811D16C48006828B96B482060E3
:103A300060600020A06008E067480068012804D1A9
:103A40006648206060600020A0606248007802281C
:103A500013D16148006830B96148206061486060F6
:103A60000020A06009E05C480068012805D15C489E
:103A700020605C4860600020A06056480078032801
:103A800013D15548006830B95748206057486060E6
:103A90000020A06009E050480068012805D1524884
:103AA0002060524860600020A0604A4800780428E6
:103AB00013D14948006830B94948206049486060DE
:103AC0000020A06009E044480068012805D144486E
:103AD0002060444860600020A06031462846FCF722
:103AE000D2FBE0604249E068FCF766FD07D24FF088
:103AF0007E51E068FCF756FD01D20020E0604FF0F7
:103B000080402169FCF7C5FB8346E168FCF7BEFBFA
:103B100082466169FCF765FB8146A168FCF7B9FB49
:103B20000746E1686068FCF7B4FB8246D4E903010C
:103B3000FCF7A9FB83462168FCF7ABFB81465146A5
:103B4000FCF74FFB80463946FCF74BFBA061206930
:103B50006061E0682061274800681E2804DA254873
:103B60000068401C234908602348006801282DD1C3
:103B70002249A069FCF720FD04D32149A069FCF784
:103B800011FD04D21F480068401C1E4908601D48F2
:103B90000068142807D101201B49086000201B4938
:103BA0000860184908600C48006820B91848006887
:103BB000401C1749086016480068B0F5FA7F05D127
:103BC000002013490860012003490860A069BDE88E
:103BD000F09F00009600002010010020CDCC4C3E4C
:103BE0006666E63EAE47613E9A99993E8FC2753E43
:103BF000000080BFD80000200C0100200000A04180
:103C00000000A0C1CC000020D40000203001002022
:103C1000D00000202DE9F05F04460E4615466C48A2
:103C20000078012812D16B48006830B96A482060DA
:103C30006A4860600020A06008E0664800680128CB
:103C400004D16748206060600020A0606048007870
:103C5000022813D15F48006830B96248206062488A
:103C600060600020A06009E05A480068012805D182
:103C70005C482060594860600020A060544800788B
:103C8000032812D15348006830B95848206058487A
:103C900060600020A06008E04E480068012804D160
:103CA0004E48206060600020A060494800780428E9
:103CB00011D14848006828B94E4820606060002053
:103CC000A06008E043480068012804D1494820600A
:103CD00060600020A06031462846FCF7D4FAE0601E
:103CE0004549E068FCF768FC07D24FF07E51E06878
:103CF000FCF758FC01D20020E0604FF080402169C1
:103D0000FCF7C7FA8346E168FCF7C0FA82466169AE
:103D1000FCF767FA8146A168FCF7BBFA0746E16841
:103D20006068FCF7B6FA8246D4E90301FCF7ABFA07
:103D300083462168FCF7ADFA81465146FCF751FAFB
:103D400080463946FCF74DFAA06120696061E06861
:103D500020612A4800681E2804DA28480068401CB0
:103D6000264908602648006801282DD12549A06908
:103D7000FCF722FC04D32449A069FCF713FC04D20D
:103D800022480068401C2149086020480068142827
:103D900007D101201E49086000201E4908601B4908
:103DA00008600C48006820B91B480068401C1A498C
:103DB000086019480068B0F5FA7F05D1002016495F
:103DC0000860012003490860A069BDE8F09F000079
:103DD00096000020100100200AD7A33CCDCC4C3D1A
:103DE000CDCCCC3D8FC2753C295C8F3DA69B443C1D
:103DF0008FC2753D0AD7233C000080BFD800002049
:103E00000C0100200000A0410000A0C1CC00002057
:103E1000D400002030010020D00000202DE9F04F18
:103E20008BB0FE484078FE490870084600780128AB
:103E30007ED1FC480068FC490860FC480068FC49E9
:103E40000860F9480168FA48006804F0EDFDF94996
:103E5000F94803F095FDF4480068F8498860F44893
:103E60000068C8600021F6480068FCF79BFB19D188
:103E7000F4480068401CF34908604FF07E50F24956
:103E80000860F0480068032824D1EA480068EF4938
:103E90000860E9480068EE4908604FF07E50E84944
:103EA000086017E0E9480168E2480068FCF723FA77
:103EB000E8490860E6480168DF480068FCF71BFA3B
:103EC000E549086008460168E2480068FCF713FA13
:103ED000DD490860D7480068FCF705FBCDE908011B
:103EE000D5480068FCF7FFFA04460D46D64800683E
:103EF000FCF7F9FA06460F46D7480068FCF7F3FAD4
:103F000082468B46D3480068FCF7EDFA8046894626
:103F1000DDE9080142464B46CDE900ABCDE9026739
:103F2000CDE90445CDE90601CCA002F07BFA00E022
:103F300001E001F091F9BA48007802287ED1B94831
:103F40000068B9490860B9480068B9490860B648CE
:103F50000168B748006804F081FDCC49CC4803F003
:103F600067FDB1480068B5498860B1480068C8601D
:103F70000021B3480068FCF715FB19D1B14800686F
:103F8000401CB04908604FF07E50AF490860AD4812
:103F90000068032824D1BD480068AC490860BC48CB
:103FA0000068AB4908604FF07E50A549086017E0F3
:103FB000A6480168B5480068FCF79DF9A549086066
:103FC000A3480168B2480068FCF795F9A249086067
:103FD000084601689F480068FCF78DF99A49086017
:103FE000AA480068FCF77FFA04460D46A848006816
:103FF000FCF779FACDE9080193480068FCF773FAF9
:104000008046894694480068FCF76DFA82468B46E4
:1040100090480068FCF767FA06460F46CDE906456A
:10402000DDE9080132463B46CDE900ABCDE9028926
:10403000CDE9040189A002F0F5F900E001E001F00A
:104040000BF97748007803287DD1764800687649D7
:1040500008607648006876490860734801687448CB
:10406000006804F015FD8B498B4803F039FD6E485C
:104070000068724988606E480068C8600021704816
:104080000068FCF78FFA19D16E480068401C6D4932
:1040900008604FF07E506C4908606A480068032849
:1040A00024D17C480068694908607B4800686849F9
:1040B00008604FF07E506249086017E0634801686D
:1040C00074480068FCF717F96249086060480168A5
:1040D00071480068FCF70FF95F49086008460168FD
:1040E0005C480068FCF707F95749086069480068B0
:1040F000FCF7F9F904460D4667480068FCF7F3F948
:1041000006460F4650480068FCF7EDF980468946A0
:1041100051480068FCF7E7F982468B464D48006835
:10412000FCF7E1F9CDE900ABCDE90289CDE90467FF
:10413000CDE90645CDE9080148A0DDE9082302F0F4
:1041400071F901F089F836480078042864D13548BF
:1041500000683549086035480068354908603248CC
:1041600001683348006804F0ADFC4C494C4803F04A
:104170000FFD2D480068314988602D480068C860EF
:1041800000212F480068FCF70DFA19D12D4800686E
:10419000401C2C4908604FF07E502B49086029488C
:1041A0000068032824D13D480068284908603C483D
:1041B0000068274908604FF07E502149086017E0E9
:1041C0002248016835480068FCF795F821490860E5
:1041D0001F48016832480068FCF78DF81E490860E6
:1041E000084601681B480068FCF785F81649086016
:1041F0002A480068FCF777F904460D46284800680D
:10420000FCF771F906460F460F480068FCF76BF99A
:1042100080468946104845E05FE00000C801002064
:10422000960000201400002048000020100000200C
:104230004C000020A8000020A4000020AC140020A6
:104240004C010020340100205C01002054010020BA
:10425000580100204401002048010020204B313D3E
:10426000202566204B323D202566206B333D2025DE
:104270006620795F726573756C743D202566207ABF
:104280005F726573756C742025660D006C010020EB
:10429000680100207C010020780100208C010020B2
:1042A000880100200068FCF71EF982468B460C4806
:1042B0000068FCF718F9CDE900ABCDE90289CDE93A
:1042C0000467CDE90645CDE90801AFF27000DDE9EC
:1042D000082302F0A7F800F0BFFF0BB0BDE8F08F95
:1042E000440100202DE9FC4704468946DE48007859
:1042F00001280ED1DD480168DD480068FBF7C9FFE1
:10430000DC490860084601682046FBF7BCFFDA4933
:104310000860D548007802280ED1D4480168D748F3
:104320000068FBF7B6FFD3490860084601682046DD
:10433000FBF7A9FFD0490860CB48007803280ED1CD
:10434000CA480168CE480068FBF7A3FFC949086066
:10435000084601682046FBF796FFC7490860C24837
:10436000007804280ED1C1480168C6480068FBF7F0
:1043700090FFC0490860084601682046FBF783FFAC
:10438000BD490860BC480068FCF7ADF80546BE4A68
:10439000BE4BFCF7BBF80DD2B7480068FCF7A3F89A
:1043A0000546B94ABA4BFCF7C9F803D20020B9490F
:1043B000086007E1AC48007801283DD12246AD48AD
:1043C0000168B548FFF726FBB2490860B3480068AA
:1043D000401CB2490860084600681E2819DAB04936
:1043E000A5480068FCF7E8F813D2AE49A948006870
:1043F000FCF7E2F803D2AB48A64908601CE0AA49E2
:10440000A4480068FCF7CEF816D2A748A149086076
:1044100012E0A3499F480068FCF7CEF803D2A048F9
:104420009C49086008E0A1499A480068FCF7BAF87E
:1044300002D29E48974908608B48007802283DD1F7
:1044400022468C4801689448FFF7E4FA91490860D5
:1044500092480068401C91490860084600681E2880
:1044600019DA8F4984480068FCF7A6F813D28D4901
:1044700088480068FCF7A0F803D28A48854908609C
:104480001CE0894983480068FCF78CF816D28648FE
:104490008049086012E082497E480068FCF78CF889
:1044A00003D27F487B49086008E08049794800686A
:1044B000FCF778F802D27D48764908606A480078AF
:1044C00003283DD122466B4801687348FFF7A2FAE2
:1044D0007049086071480068401C704908600846CF
:1044E00000681E2819DA6E4963480068FCF764F812
:1044F00013D26C4967480068FCF75EF803D269483C
:10450000644908601CE0684962480068FCF74AF8A2
:1045100016D265485F49086012E061495D4800684D
:10452000FCF74AF803D25E485A49086008E05F4940
:1045300058480068FCF736F802D25C4855490860D4
:104540004948007804283DD122464A48016852482B
:10455000FFF760FA4F49086050480068401C4F4917
:104560000860084600681E2819DA4D49424800686C
:10457000FCF722F813D24B4946480068FCF71CF8B8
:1045800003D24848434908601CE047494148006855
:10459000FCF708F816D244483E49086012E040494A
:1045A0003C480068FCF708F803D23D4839490860E8
:1045B00008E03E4937480068FBF7F4FF02D23B4869
:1045C000344908604846FBF74FFF0546314801680B
:1045D0002846FBF706FE364908600021344800688B
:1045E000FBF7E0FF03D200203149086008E03149C1
:1045F0002F480068FBF7E0FF02D22F482C490860E3
:104600002E4804601B4800682C4948602148006817
:10461000086127480068486116480068FBF763FF97
:1046200005460E462046FBF75EFF07463A460B4618
:1046300023A0CDE9005601F0F5FE1D480068FBF708
:1046400052FF05460E4613480068FBF74CFF07462D
:104650003A460B461CA0CDE9005601F0E3FE144893
:104660000068BDE8FC870000960000205C01002087
:10467000A4000020DC000020E000002068010020F1
:1046800078010020880100209A9999999999C93F49
:104690009999C9BFBC000020C8130020C8000020A1
:1046A000000040400000A0400000A0C0000040C04A
:1046B000B800002000A08C4500988C45AC14002068
:1046C00025662C25660D0A004C75785F4F75745071
:1046D000574D30203D20252E33660D202C204C7563
:1046E000785F4F757450574D203D20252E33660D51
:1046F000000000002DE9FC4704468946FE4800788A
:1047000001280ED1FD480168FD480068FBF7C1FD96
:10471000FC490860084601682046FBF7B4FDFA49E9
:104720000860F548007802280ED1F4480168F7487F
:104730000068FBF7AEFDF3490860084601682046B3
:10474000FBF7A1FDF0490860EB48007803280ED183
:10475000EA480168EE480068FBF79BFDE9490860FC
:10476000084601682046FBF78EFDE7490860E248ED
:10477000007804280ED1E1480168E6480068FBF79C
:1047800088FDE0490860084601682046FBF77BFD8C
:10479000DD490860DC480068FBF7A5FE0546DE4AF7
:1047A000DE4BFBF7B3FE0DD2D7480068FBF79BFE4C
:1047B0000546D94ADA4BFBF7C1FE03D20020D9499E
:1047C0000860EAE1CC480078012852D12246CD4861
:1047D0000168D548FFF71EFAD2490860CA48006848
:1047E000FBF781FE05460022D04BFBF7A7FE03D264
:1047F000CF48CC4908603CE0C3480068FBF773FE33
:1048000005460022CB4BFBF781FE03D2CA48C549BF
:1048100008602EE0BC480068FBF765FE0546C74A05
:10482000C74BFBF78BFE0DD2B7480068FBF75BFE6A
:1048300005460022BD4BFBF769FE03D2C148B949CA
:10484000086016E0B0480068FBF74DFE0546BB4A1D
:10485000BD4BFBF773FE0CD2AB480068FBF743FE81
:104860000546BA4ABA4BFBF751FE02D2B948AD49E8
:104870000860A1480078022866D12246A148016854
:10488000A948FFF7C7F9A74908609F480068FBF7E8
:104890002AFE05460022A54BFBF750FE03D2A44892
:1048A000A049086050E098480068FBF71CFE0546E8
:1048B0000022A04BFBF72AFE03D29F4899490860CB
:1048C00042E091480068FBF70EFE05469B4A9C4B70
:1048D000FBF734FE0DD28C480068FBF704FE05465A
:1048E0000022924BFBF712FE03D296488D490860D6
:1048F0002AE085480068FBF7F6FD054600228D4B4F
:10490000FBF71CFE0DD280480068FBF7ECFD054666
:104910008A4A914BFBF7FAFD03D29048814908601F
:1049200012E0002178480068FBF746FE0CD276487A
:104930000068FBF7D8FD0546804A814BFBF7E6FD92
:1049400002D28748774908606B480078032876D1FF
:1049500022466C4801687448FFF75CF971490860A9
:1049600080480068401C7F4908604FF07E516648CF
:104970000068FBF721FE03D27B486A4908605EE0CD
:1049800061480068FBF7AFFD05460022674BFBF767
:10499000D5FD03D266486349086050E05A48006874
:1049A000FBF7A1FD05460022624BFBF7AFFD03D2EA
:1049B0006E485C49086042E053480068FBF793FD8D
:1049C00005465E4A5E4BFBF7B9FD0DD24E480068C6
:1049D000FBF789FD05460022544BFBF797FD03D2F8
:1049E0005848504908602AE047480068FBF77BFDBB
:1049F000054600224F4BFBF7A1FD0DD2424800684F
:104A0000FBF771FD05464D4A534BFBF77FFD03D283
:104A100057484449086012E000213B480068FBF712
:104A2000CBFD0CD238480068FBF75DFD0546434AD4
:104A3000434BFBF76BFD02D249483A4908602E48C8
:104A40000078042819D122462E4801683648FFF71D
:104A5000E1F83449086043480068401C4149086057
:104A600029480068FBF73FFD054600222F4BFBF766
:104A700065FD03D22E482B4908608EE0224800686D
:104A8000FBF731FD054600222A4BFBF73FFD03D221
:104A900029482449086080E01B480068FBF723FD93
:104AA0000546264A264BFBF749FD0DD216480068FD
:104AB000FBF719FD054600221C4BFBF727FD03D22F
:104AC00020481849086068E00F480068FBF70BFDB4
:104AD00005460022174BFBF731FD4BD20A48006810
:104AE000FBF701FD0546154A1B4BFBF70FFD41D2B5
:104AF0001E480C49086050E0960000205C01002030
:104B0000A4000020DC000020E0000020680100205C
:104B10007801002088010020FCA9F1D24D62503FAD
:104B20004D6250BFBC000020C81300200000E03FD1
:104B3000CDCC4C3D0000E0BFCDCC4CBD9A999999AD
:104B40009999B93F0AD7A33C9999A9BF7B14AE475D
:104B5000E17A84BF0AD7A3BC9999B9BF0AD723BC0D
:104B60000AD7233CC8000020CDCCCC3D8FC2F5BC79
:104B70008FC275BC00212F480068FBF71DFD0CD2C9
:104B80002C480068FBF7AFFC05462B4A2B4BFBF784
:104B9000BDFC02D22A482B4908602A4801684846D1
:104BA000FBF71FFB28490860002127480068FBF736
:104BB000F9FC03D200202449086008E02349224878
:104BC0000068FBF7F9FC02D220481F490860204822
:104BD0000460204800681E4948601A48006808615F
:104BE0001948006848611B480068FBF77CFC0546D3
:104BF0000E462046FBF777FC07463A460B4616A0C2
:104C0000CDE9005601F00EFC0F480068FBF76BFC85
:104C100005460E460B480068FBF765FC07463A461A
:104C20000B4610A0CDE9005601F0FCFB06480068D9
:104C3000BDE8FC87E00000209A9999999999B93FBD
:104C40000AD7233CBC000020B80000200000C84266
:104C5000AC140020DC0000202025662C2025660DE9
:104C60000A000000204C75785F4F757450574D3026
:104C7000203D20252E33660D202C204C75785F4F6B
:104C8000757450574D203D20252E33660D000000D1
:104C900008B500BF1A48406940F001001849486152
:104CA0000846406900F00100009000BF00BF0022EC
:104CB00011460C20FCF712FE0C20FCF7FFFD002231
:104CC00011460D20FCF70AFE0D20FCF7F7FD00222F
:104CD00011460E20FCF702FE0E20FCF7EFFD00222D
:104CE00011460F20FCF7FAFD0F20FCF7E7FD00222C
:104CF00011461120FCF7F2FD1120FCF7DFFD08BD85
:104D00000010024000B585B0002001900290039091
:104D1000049000BF6448806940F0200062498861C7
:104D20000846806900F02000009000BF00BF00BF6F
:104D30000846806940F0040088610846806900F0F8
:104D40000400009000BF00BF00BF0846806940F02B
:104D5000080088610846806900F00800009000BFE4
:104D600000BF00BF0846806940F010008861084617
:104D7000806900F01000009000BF00BF00224FF4D7
:104D800070414A48FCF726FD00224FF41071484854
:104D9000FCF720FD01224FF48C514548FCF71AFD29
:104DA00000224FF440714348FCF714FD0122042116
:104DB0004148FCF70FFD012218213C48FCF70AFD91
:104DC000202001903D4802900120039001A939481C
:104DD000FCF758FB4FF40060019038480290022025
:104DE000039001A93148FCF74DFB4FF4704001904E
:104DF00001200290002003900220049001A92B487A
:104E0000FCF740FB4FF4107001900120029000204D
:104E100003900220049001A92548FCF733FB4FF4CE
:104E20008C500190112002900120039003200490E7
:104E300001A91F48FCF726FB4FF4407001900120A8
:104E40000290002003900220049001A91948FCF769
:104E500019FB0420019011200290012003900320EF
:104E6000049001A91448FCF70DFB182001901120B3
:104E70000290012003900320049001A90B48FCF745
:104E800001FB002211461720FCF728FD1720FCF734
:104E900015FD002201212820FCF720FD2820FCF729
:104EA0000DFD05B000BD000000100240000C0140E7
:104EB00000100140000801400014014000001110E2
:104EC00000B58BB000200790089009900A900590DB
:104ED000069001900290039004901F481F490860BB
:104EE0003B20486000211D4881604FF6FF71C16082
:104EF0000021016141618161FDF7E8F808B1FBF72C
:104F0000A5FE4FF48050079007A91448FDF7E8F973
:104F100008B1FBF79BFE1148FDF7D8FA08B1FBF783
:104F200095FE00200590069005A90C48FDF780F835
:104F300008B1FBF78BFE00200190012002900020B9
:104F4000039004900C2201A90448FDF750FA08B11F
:104F5000FBF77CFE0BB000BD002C014000020020DE
:104F600000B58DB0002009900A900B900C9007902E
:104F700008901C216846FBF722F94FF08040204939
:104F800008600220486000211D48816040F2E7313E
:104F9000C160002101618161FDF798F808B1FBF75C
:104FA00055FE4FF48050099009A91548FDF798F96E
:104FB00008B1FBF74BFE1248FDF767FC08B1FBF7A1
:104FC00045FE00200790089007A90D48FDF730F82E
:104FD00008B1FBF73BFE602000900020019002200A
:104FE000029000200490002269460548FDF7CBFBA3
:104FF00008B1FBF72BFE0248FDF768FB0DB000BDC2
:105000004802002000B587B000200390049005906E
:105010000690019002901448144908603B204860B3
:1050200000211248816040F2E731C1600021016136
:105030008161FDF74BF808B1FBF708FE4FF4805093
:10504000039003A90948FDF74BF908B1FBF7FEFDF2
:1050500000200190029001A90448FCF7E9FF08B183
:10506000FBF7F4FD07B000BD0004004090020020F3
:1050700000B58DB0002009900A900B900C9007901D
:1050800008901C216846FBF79AF8204820490860E0
:105090000020486000211E48816041F29311C160E8
:1050A000002101618161FDF711F808B1FBF7CEFD28
:1050B0004FF48050099009A91548FDF711F908B17E
:1050C000FBF7C4FD1248FDF7E0FB08B1FBF7BEFD9E
:1050D00000200790089007A90D48FCF7A9FF08B128
:1050E000FBF7B4FD60200090002001900290049036
:1050F000082269460648FDF746FB08B1FBF7A6FD06
:105100000348FDF7E3FA0DB000BD000000080040C1
:10511000D802002010B51148114908604FF4E13061
:10512000486000210E488160C16001610C2141612D
:1051300000218161C161FDF76FFF08B1FBF786FDBA
:1051400007480068C06840F0100005490968C86059
:10515000642204490248FDF7DEFC10BD003801401E
:10516000840300202003002010B50B480B49086081
:105170004FF4E1304860002108488160C16001615E
:105180000C21416100218161C161FDF745FF08B13A
:10519000FBF75CFD10BD000000440040CC03002084
:1051A00010B51148114908604FF4E1304860002102
:1051B0000E488160C16001610C2141610021816163
:1051C000C161FDF729FF08B1FBF740FD0748006802
:1051D000C06840F0100005490968C86064220449AD
:1051E0000248FDF798FC10BD004800401404002060
:1051F000200300202DE9F04704460E460027002535
:10520000A846A94600BF19E0002512E06A1C54F820
:10521000221054F82500FBF7CFF909D254F8259055
:10522000681C54F8200044F82500681C44F82090BD
:105230006D1C701EC01BA842E8DC7F1C701EB842AB
:10524000E2DCA6F1030854F82800BDE8F08700BFAF
:10525000FEE700BFFEE7000070B5B948006800280F
:105260003AD1B848006820B9B7480068401CB64930
:105270000860B5480068012806D10020B2490860DE
:105280000120B049086027E0B0480078022805D125
:10529000AF480068FBF7FAF8AE490860AB48007801
:1052A000032805D1AC480068FBF7F0F8A94908606D
:1052B000A6480078012805D1A8480068FBF7E6F861
:1052C000A4490860A1480078042805D1A4480068D2
:1052D000FBF7DCF89F4908609A48006801287CD1F8
:1052E0009A480078012825D19E4801689B480068AB
:1052F000FAF7CFFF9C499D4A126841F822009B486B
:105300000068401C9949086008460068052811D1CA
:105310000020086005219448FFF76CFF944908605D
:105320000120874908600020864908605021914883
:10533000FAF745FF85480078022825D18948016899
:1053400083480068FAF7A5FF8749884A126841F840
:10535000220086480068401C8449086008460068AE
:10536000052811D10020086005217F48FFF742FF82
:105370007F49086001207249086000207149086077
:1053800050217C48FAF71BFF70480078032827D18A
:105390007448016870480068FAF77BFF7249734AE5
:1053A000126841F8220071480068401C6F4908608B
:1053B00008460068052813D10020086005216A48C6
:1053C000FFF718FF6A49086001205D490860002066
:1053D0005C4908605021674800E02BE0FAF7EFFED7
:1053E0005A480078042825D15E4801685C48006866
:1053F000FAF74FFF5C495D4A126841F822005B48AA
:105400000068401C5949086008460068052811D109
:105410000020086005215448FFF7ECFE544908605D
:105420000120474908600020464908605021514842
:10543000FAF7C5FE42480068012818D14E480078A6
:10544000B0B94E4801684A480068FFF753F94B4924
:1054500008604B4949480068FAF74DFF054649493D
:10546000FAF717FF04462146B020FBF73BFC66E045
:1054700041480078012862D134480078012814D1CD
:105480004148006881B23A480068FEF72BFF0446A5
:10549000FBF715F83C490860324801682F4800685E
:1054A000FAF7F7FE3949086049E0284800780228F1
:1054B00014D13548006881B22D480068FEF712FF0C
:1054C0000446FAF7FCFF3049086026480168204886
:1054D0000068FAF7DEFE2D49086030E01B480078CE
:1054E000032814D12848006881B221480068FEF7DB
:1054F000F9FE0446FAF7E3FF2349086019480168FA
:1055000015480068FAF7C5FE2049086017E00F4803
:105510000078042813D11C48006881B21448006840
:10552000FEF7E0FE0446FAF7CAFF174908600D4887
:1055300001680B480068FAF7ACFE1449086070BDBA
:105540000801002004010020240100209600002012
:10555000680100202801002078010020A40000201C
:10556000880100205C0100200C1400202C01002088
:105570003C0100205C14002022000020700000206C
:105580000000C842000020413C0800401C010020EF
:105590007047000008B508490968C9084FF47A72D5
:1055A000B1FBF2F14143009100BF00BF00994A1ED8
:1055B00000920029F9D108BD9C0100202DE9F84F87
:1055C00006460F460021E02000F07EF900F086F844
:1055D000892000F0B5F800F00BFF012204212B48D0
:1055E000FCF7F8F800BF04212848FCF7EBF8002886
:1055F000F9D0002000F02AF905464FF6FF7000EAC6
:105600000525002000F022F90543002000F01EF9D6
:105610008146002000F01AF904464FF6FF7000EAB8
:105620000424002000F012F90443012000F00EF9D8
:10563000804600F06FF8204600F032F8404523D154
:10564000284600F02DF848451ED12046FAF70CFFF9
:1056500083460F49FAF71DFE82460E49FAF74BFEC4
:1056600030602846FAF700FF0B490090FAF711FE68
:1056700083460849FAF73FFE82460849FAF703FED7
:1056800038600120BDE8F88F0020FBE700140140DE
:105690000000C84200FF7F4700002F430000344253
:1056A00030B50146FF200C0A002214E060400023C0
:1056B0000BE000F0800525B14506280E80F0310092
:1056C00001E04506280E5D1CEBB2082BF1DB02B9A8
:1056D000CCB2551CEAB2022AE8DB30BD10B501227B
:1056E00011030A48FCF776F8012204210848FCF768
:1056F00071F800224FF480510448FCF76BF8002247
:1057000004210348FCF766F810BD000000100140BA
:105710000014014010B500224FF480510648FCF7F8
:1057200059F8012204210548FCF754F8012211031D
:105730000148FCF74FF810BD001001400014014073
:1057400070B50546002414E005FA04F000F080026C
:105750004FF480510B48FCF73DF8012204210A4820
:10576000FCF738F8002204210748FCF733F8601CE6
:10577000C4B2082CE8DB012211030248FCF72AF826
:1057800070BD0000001001400014014000B585B05C
:105790000020019002900390049000BF2848806987
:1057A00040F01000264988610846806900F010002A
:1057B000009000BF00BF00BF0846806940F0200095
:1057C00088610846806900F02000009000BF00BF9B
:1057D000012289141B48FBF7FDFF012204211A480E
:1057E000FBF7F8FF042001901120029000200390A5
:1057F0000320049001A91348FBF744FE4FF48050A6
:10580000019011200290002003900320049001A930
:105810000C48FBF737FE012204210B48FBF7DAFFA7
:10582000012211030748FBF7D5FF3721272000F09D
:105830004BF84FF49670FBF755F905B000BD00002A
:1058400000100240001001400014014070B50546F0
:105850000026012211031A48FBF7BCFF002415E0C3
:10586000012204211748FBF7B5FF4FF4805114487B
:10587000FBF7A8FFC4F1070188403043C6B20022FD
:1058800004211048FBF7A6FF601CC4B2082CE7DB1C
:105890002A464FF480510A48FBF79CFF012204215D
:1058A0000848FBF797FF002204210648FBF792FF08
:1058B000012211030248FBF78DFF304670BD000046
:1058C000001001400014014070B505460C46FFF77A
:1058D00005FF8820FFF734FF00F08AFD2846FFF718
:1058E0002FFF00F085FD2046FFF72AFF00F080FD26
:1058F000FFF710FF70BD704710B5FBF77FFF10BDBD
:1059000000B58FB0282105A8FAF759FC1421684684
:10591000FAF755FC0120059000040690400007901E
:105920000120099002200C90C1030D914FF45011F9
:105930000E9105A8FCF748F908B1FBF787F90F208D
:10594000009002200190002002904FF480600390AC
:105950000020049002216846FCF712F808B1FBF71A
:1059600075F90FB000BD704710B50248FCF7E2FDB5
:1059700010BD00004802002010B50248FCF7DAFD17
:1059800010BD00009002002010B50248FCF7D2FDC7
:1059900010BD0000D802002010B50268204B9842CC
:1059A0000ED0204B98420BD0B0F1804F08D01E4B48
:1059B000984205D01D4B984202D01D4B984203D10E
:1059C00022F070024B681A43154B98420ED0154BCB
:1059D00098420BD0B0F1804F08D0134B984205D0BD
:1059E000124B984202D0124B984203D122F44072DB
:1059F000CB681A4322F080034C6943EA0402026038
:105A00008B68C3620B688362054B984202D0054BDA
:105A1000984201D10B6903630123436110BD00006B
:105A2000002C014000340140000400400008004008
:105A3000000C004030B501F01F05012404FA05F305
:105A4000046A9C430462046A01F01F0502FA05F52A
:105A50002C43046230BD30B50C46816821F47F418F
:105A600042EA032525432943816030BD0A46816807
:105A700021F0700142F00703194381607047000074
:105A800030B5026A056A25F001050562436884693C
:105A900024F0700424F003040D682C4322F0020269
:105AA0008D682A43104DA84200D103E00F4DA84253
:105AB00006D100BF22F00802CD682A4322F004027A
:105AC000094DA84202D0094DA84207D123F48073A2
:105AD00023F400734D692B438D692B43436084612C
